:100000000C945C000C946E000C946E000C946E00CA
:100010000C946E000C946E000C946E000C946E00A8
:100020000C946E000C946E000C946E000C942501E0
:100030000C946E000C946E000C9458010C946E009D
:100040000C94DB000C946E000C946E000C946E000B
:100050000C946E000C946E000C946E000C946E0068
:100060000C946E000C946E00000000080002010069
:100070000003040700000000000000000000000072
:10008000250028002B0000000000240027002A0083
:10009000040404040404040402020202020203032E
:1000A0000303030301020408102040800102040836
:1000B000102001020408102011241FBECFEFD8E049
:1000C000DEBFCDBF21E0A0E0B1E001C01D92AB30AA
:1000D000B207E1F70E948C010C9409020C94000015
:1000E00090E0FC01EC55FF4F249180579F4FFC019D
:1000F0008491882399F090E0880F991FFC01EA57BA
:10010000FF4FA591B491FC01E458FF4F8591949164
:100110008FB7F894EC91E22BEC938FBF089590E0A9
:10012000FC01E859FF4F2491FC01EC55FF4F34913D
:10013000FC01E057FF4FE491EE23C9F0222339F090
:10014000233001F1A8F4213019F1223029F1F0E037
:10015000EE0FFF1FE458FF4FA591B4918FB7F894AD
:10016000EC91611126C030953E233C938FBF0895DA
:100170002730A9F02830C9F0243049F78091800059
:100180008F7D03C0809180008F7780938000DFCFC8
:1001900084B58F7784BDDBCF84B58F7DFBCF809115
:1001A000B0008F778093B000D2CF8091B0008F7D68
:1001B000F9CF3E2BDACF1F920F920FB60F92112478
:1001C0002F933F938F939F93AF93BF93809107019A
:1001D00090910801A0910901B0910A0130910601A6
:1001E00023E0230F2D3758F50196A11DB11D209353
:1001F00006018093070190930801A0930901B09331
:100200000A018091020190910301A0910401B09133
:1002100005010196A11DB11D809302019093030178
:10022000A0930401B0930501BF91AF919F918F916D
:100230003F912F910F900FBE0F901F90189526E8B9
:10024000230F0296A11DB11DD2CF1F920F920FB6A0
:100250000F9211242F933F934F935F936F937F934C
:100260008F939F93AF93BF93EF93FF93809101017F
:1002700061E08823B1F08DE00E948F0010920101AF
:10028000FF91EF91BF91AF919F918F917F916F916E
:100290005F914F913F912F910F900FBE0F901F9044
:1002A00018958DE00E948F0081E080930101E8CFD6
:1002B0001F920F920FB60F9211242F933F934F93DB
:1002C0005F936F937F938F939F93AF93BF93EF93BE
:1002D000FF93809100018823B9F061E088E00E94DB
:1002E0008F0010920001FF91EF91BF91AF919F910C
:1002F0008F917F916F915F914F913F912F910F90CF
:100300000FBE0F901F90189560E088E00E948F004C
:1003100081E080930001E7CF789484B5826084BD4A
:1003200084B5816084BD85B5826085BD85B58160F9
:1003300085BD80916E00816080936E001092810077
:100340008091810082608093810080918100816032
:1003500080938100809180008160809380008091F3
:10036000B10084608093B1008091B000816080937F
:10037000B00080917A00846080937A0080917A0046
:10038000826080937A0080917A00816080937A0005
:1003900080917A00806880937A001092C10088E092
:1003A0000E9470008DE00E947000F89414BC15BC8F
:1003B00016BC8CE787BD84B5826084BD85B583603B
:1003C00085BD82E080936E001092800010928100C3
:1003D000109285001092840088E09DE3909389003C
:1003E0008093880080918100886080938100809153
:1003F000810085608093810080916F00826080938E
:100400006F007894C0E0D0E02097F1F30E940000E4
:06041000FBCFF894FFCFC2
:00000001FF
